{
  "_format": "hh-sol-artifact-1",
  "contractName": "WavePortal",
  "sourceName": "contracts/WavePortal.sol",
  "abi": [
    {
      "inputs": [],
      "stateMutability": "payable",
      "type": "constructor"
    },
    {
      "anonymous": false,
      "inputs": [
        {
          "indexed": true,
          "internalType": "address",
          "name": "from",
          "type": "address"
        },
        {
          "indexed": false,
          "internalType": "uint256",
          "name": "timestamp",
          "type": "uint256"
        },
        {
          "indexed": false,
          "internalType": "string",
          "name": "name",
          "type": "string"
        },
        {
          "indexed": false,
          "internalType": "string",
          "name": "message",
          "type": "string"
        },
        {
          "indexed": false,
          "internalType": "uint256",
          "name": "wavecount",
          "type": "uint256"
        },
        {
          "indexed": false,
          "internalType": "bool",
          "name": "winOrLose",
          "type": "bool"
        }
      ],
      "name": "NewWave",
      "type": "event"
    },
    {
      "inputs": [],
      "name": "LUCKY_PRICE",
      "outputs": [
        {
          "internalType": "uint256",
          "name": "",
          "type": "uint256"
        }
      ],
      "stateMutability": "view",
      "type": "function"
    },
    {
      "inputs": [],
      "name": "MAX_PER_MINT",
      "outputs": [
        {
          "internalType": "uint256",
          "name": "",
          "type": "uint256"
        }
      ],
      "stateMutability": "view",
      "type": "function"
    },
    {
      "inputs": [],
      "name": "PRICE",
      "outputs": [
        {
          "internalType": "uint256",
          "name": "",
          "type": "uint256"
        }
      ],
      "stateMutability": "view",
      "type": "function"
    },
    {
      "inputs": [],
      "name": "getAllWaves",
      "outputs": [
        {
          "components": [
            {
              "internalType": "address",
              "name": "waver",
              "type": "address"
            },
            {
              "internalType": "uint256",
              "name": "timestamp",
              "type": "uint256"
            },
            {
              "internalType": "string",
              "name": "name",
              "type": "string"
            },
            {
              "internalType": "string",
              "name": "message",
              "type": "string"
            },
            {
              "internalType": "uint256",
              "name": "wavecount",
              "type": "uint256"
            },
            {
              "internalType": "bool",
              "name": "winOrLose",
              "type": "bool"
            }
          ],
          "internalType": "struct WavePortal.Wave[]",
          "name": "",
          "type": "tuple[]"
        }
      ],
      "stateMutability": "view",
      "type": "function"
    },
    {
      "inputs": [],
      "name": "getTotalWaves",
      "outputs": [
        {
          "internalType": "uint256",
          "name": "",
          "type": "uint256"
        }
      ],
      "stateMutability": "view",
      "type": "function"
    },
    {
      "inputs": [
        {
          "internalType": "address",
          "name": "",
          "type": "address"
        }
      ],
      "name": "lastWavedAt",
      "outputs": [
        {
          "internalType": "uint256",
          "name": "",
          "type": "uint256"
        }
      ],
      "stateMutability": "view",
      "type": "function"
    },
    {
      "inputs": [
        {
          "internalType": "string",
          "name": "_name",
          "type": "string"
        },
        {
          "internalType": "string",
          "name": "_message",
          "type": "string"
        },
        {
          "internalType": "uint256",
          "name": "_wavecount",
          "type": "uint256"
        }
      ],
      "name": "mintWave",
      "outputs": [],
      "stateMutability": "payable",
      "type": "function"
    },
    {
      "inputs": [
        {
          "internalType": "string",
          "name": "_name",
          "type": "string"
        },
        {
          "internalType": "string",
          "name": "_message",
          "type": "string"
        },
        {
          "internalType": "uint256",
          "name": "_wavecount",
          "type": "uint256"
        }
      ],
      "name": "wave",
      "outputs": [],
      "stateMutability": "payable",
      "type": "function"
    }
  ],
  "bytecode": "0x60806040526200004f6040518060400160405280601981526020017f57652068617665206265656e20636f6e737472756374656421000000000000008152506200007760201b620009d21760201c565b606444426200005f9190620001c4565b6200006b919062000261565b60018190555062000308565b62000117816040516024016200008e919062000184565b6040516020818303038152906040527f41304fac000000000000000000000000000000000000000000000000000000007bffffffffffffffffffffffffffffffffffffffffffffffffffffffff19166020820180517bffffffffffffffffffffffffffffffffffffffffffffffffffffffff83818316178352505050506200011a60201b60201c565b50565b60008151905060006a636f6e736f6c652e6c6f679050602083016000808483855afa5050505050565b60006200015082620001a8565b6200015c8185620001b3565b93506200016e8185602086016200022b565b6200017981620002f7565b840191505092915050565b60006020820190508181036000830152620001a0818462000143565b905092915050565b600081519050919050565b600082825260208201905092915050565b6000620001d18262000221565b9150620001de8362000221565b9250827fffffffffffffffffffffffffffffffffffffffffffffffffffffffffffffffff0382111562000216576200021562000299565b5b828201905092915050565b6000819050919050565b60005b838110156200024b5780820151818401526020810190506200022e565b838111156200025b576000848401525b50505050565b60006200026e8262000221565b91506200027b8362000221565b9250826200028e576200028d620002c8565b5b828206905092915050565b7f4e487b7100000000000000000000000000000000000000000000000000000000600052601160045260246000fd5b7f4e487b7100000000000000000000000000000000000000000000000000000000600052601260045260246000fd5b6000601f19601f8301169050919050565b6117a580620003186000396000f3fe60806040526004361061007b5760003560e01c80639a2cdc081161004e5780639a2cdc081461011d578063a42a466314610148578063bd43a90814610185578063be04a514146101b05761007b565b806309d42b30146100805780633aeaf8ab146100ab5780635e4d0f26146100d65780638d859f3e146100f2575b600080fd5b34801561008c57600080fd5b506100956101cc565b6040516100a29190611270565b60405180910390f35b3480156100b757600080fd5b506100c06101d1565b6040516100cd9190611270565b60405180910390f35b6100f060048036038101906100eb9190610ddf565b6101dc565b005b3480156100fe57600080fd5b50610107610297565b6040516101149190611270565b60405180910390f35b34801561012957600080fd5b506101326102a1565b60405161013f9190611270565b60405180910390f35b34801561015457600080fd5b5061016f600480360381019061016a9190610db6565b6102aa565b60405161017c9190611270565b60405180910390f35b34801561019157600080fd5b5061019a6102c2565b6040516101a79190611107565b60405180910390f35b6101ca60048036038101906101c59190610ddf565b6104ca565b005b600581565b66038d7ea4c6800081565b6000811180156101ed575060058111155b61022c576040517f08c379a000000000000000000000000000000000000000000000000000000000815260040161022390611250565b60405180910390fd5b61024581655af3107a4000610a6b90919063ffffffff16565b341015610287576040517f08c379a000000000000000000000000000000000000000000000000000000000815260040161027e90611250565b60405180910390fd5b6102928383836104ca565b505050565b655af3107a400081565b60008054905090565b60046020528060005260406000206000915090505481565b60606003805480602002602001604051908101604052809291908181526020016000905b828210156104c157838290600052602060002090600602016040518060c00160405290816000820160009054906101000a900473ffffffffffffffffffffffffffffffffffffffff1673ffffffffffffffffffffffffffffffffffffffff1673ffffffffffffffffffffffffffffffffffffffff16815260200160018201548152602001600282018054610379906114ed565b80601f01602080910402602001604051908101604052809291908181526020018280546103a5906114ed565b80156103f25780601f106103c7576101008083540402835291602001916103f2565b820191906000526020600020905b8154815290600101906020018083116103d557829003601f168201915b5050505050815260200160038201805461040b906114ed565b80601f0160208091040260200160405190810160405280929190818152602001828054610437906114ed565b80156104845780601f1061045957610100808354040283529160200191610484565b820191906000526020600020905b81548152906001019060200180831161046757829003601f168201915b50505050508152602001600482015481526020016005820160009054906101000a900460ff161515151581525050815260200190600101906102e6565b50505050905090565b42601e600460003373ffffffffffffffffffffffffffffffffffffffff1673ffffffffffffffffffffffffffffffffffffffff1681526020019081526020016000205461051791906113b3565b10610557576040517f08c379a000000000000000000000000000000000000000000000000000000000815260040161054e90611230565b60405180910390fd5b42600460003373ffffffffffffffffffffffffffffffffffffffff1673ffffffffffffffffffffffffffffffffffffffff16815260200190815260200160002081905550806000808282546105ac91906113b3565b925050819055506105f36040518060400160405280600d81526020017f25732068617320776176656421000000000000000000000000000000000000008152503384610a81565b6064600154424461060491906113b3565b61060e91906113b3565b6106189190611550565b60018190555061065f6040518060400160405280601581526020017f5261646f6d20232067656e6572617465643a2025640000000000000000000000815250600154610b20565b6005600154116107d7576106a86040518060400160405280600781526020017f257320776f6e210000000000000000000000000000000000000000000000000081525033610bbc565b60006106c48266038d7ea4c68000610a6b90919063ffffffff16565b905047811115610709576040517f08c379a0000000000000000000000000000000000000000000000000000000008152600401610700906111f0565b60405180910390fd5b60003373ffffffffffffffffffffffffffffffffffffffff168260405161072f906110f2565b60006040518083038185875af1925050503d806000811461076c576040519150601f19603f3d011682016040523d82523d6000602084013e610771565b606091505b50509050806107b5576040517f08c379a00000000000000000000000000000000000000000000000000000000081526004016107ac90611210565b60405180910390fd5b6001600260006101000a81548160ff0219169083151502179055505050610832565b6108166040518060400160405280600f81526020017f257320646964206e6f742077696e2e000000000000000000000000000000000081525033610bbc565b6000600260006101000a81548160ff0219169083151502179055505b60036040518060c001604052803373ffffffffffffffffffffffffffffffffffffffff168152602001428152602001858152602001848152602001838152602001600260009054906101000a900460ff161515815250908060018154018082558091505060019003906000526020600020906006020160009091909190915060008201518160000160006101000a81548173ffffffffffffffffffffffffffffffffffffffff021916908373ffffffffffffffffffffffffffffffffffffffff16021790555060208201518160010155604082015181600201908051906020019061091e929190610c81565b50606082015181600301908051906020019061093b929190610c81565b506080820151816004015560a08201518160050160006101000a81548160ff02191690831515021790555050503373ffffffffffffffffffffffffffffffffffffffff167f8569748196031ac39917c56e931db85e4e585fbf979726046943e806e32e07e842858585600260009054906101000a900460ff166040516109c595949392919061128b565b60405180910390a2505050565b610a68816040516024016109e69190611129565b6040516020818303038152906040527f41304fac000000000000000000000000000000000000000000000000000000007bffffffffffffffffffffffffffffffffffffffffffffffffffffffff19166020820180517bffffffffffffffffffffffffffffffffffffffffffffffffffffffff8381831617835250505050610c58565b50565b60008183610a799190611409565b905092915050565b610b1b838383604051602401610a999392919061117b565b6040516020818303038152906040527fe0e9ad4f000000000000000000000000000000000000000000000000000000007bffffffffffffffffffffffffffffffffffffffffffffffffffffffff19166020820180517bffffffffffffffffffffffffffffffffffffffffffffffffffffffff8381831617835250505050610c58565b505050565b610bb88282604051602401610b369291906111c0565b6040516020818303038152906040527f9710a9d0000000000000000000000000000000000000000000000000000000007bffffffffffffffffffffffffffffffffffffffffffffffffffffffff19166020820180517bffffffffffffffffffffffffffffffffffffffffffffffffffffffff8381831617835250505050610c58565b5050565b610c548282604051602401610bd292919061114b565b6040516020818303038152906040527f319af333000000000000000000000000000000000000000000000000000000007bffffffffffffffffffffffffffffffffffffffffffffffffffffffff19166020820180517bffffffffffffffffffffffffffffffffffffffffffffffffffffffff8381831617835250505050610c58565b5050565b60008151905060006a636f6e736f6c652e6c6f679050602083016000808483855afa5050505050565b828054610c8d906114ed565b90600052602060002090601f016020900481019282610caf5760008555610cf6565b82601f10610cc857805160ff1916838001178555610cf6565b82800160010185558215610cf6579182015b82811115610cf5578251825591602001919060010190610cda565b5b509050610d039190610d07565b5090565b5b80821115610d20576000816000905550600101610d08565b5090565b6000610d37610d3284611311565b6112ec565b905082815260208101848484011115610d4f57600080fd5b610d5a8482856114ab565b509392505050565b600081359050610d7181611741565b92915050565b600082601f830112610d8857600080fd5b8135610d98848260208601610d24565b91505092915050565b600081359050610db081611758565b92915050565b600060208284031215610dc857600080fd5b6000610dd684828501610d62565b91505092915050565b600080600060608486031215610df457600080fd5b600084013567ffffffffffffffff811115610e0e57600080fd5b610e1a86828701610d77565b935050602084013567ffffffffffffffff811115610e3757600080fd5b610e4386828701610d77565b9250506040610e5486828701610da1565b9150509250925092565b6000610e6a8383611044565b905092915050565b610e7b81611463565b82525050565b610e8a81611463565b82525050565b6000610e9b82611352565b610ea58185611375565b935083602082028501610eb785611342565b8060005b85811015610ef35784840389528151610ed48582610e5e565b9450610edf83611368565b925060208a01995050600181019050610ebb565b50829750879550505050505092915050565b610f0e81611475565b82525050565b610f1d81611475565b82525050565b6000610f2e8261135d565b610f388185611391565b9350610f488185602086016114ba565b610f518161163d565b840191505092915050565b6000610f678261135d565b610f7181856113a2565b9350610f818185602086016114ba565b610f8a8161163d565b840191505092915050565b6000610fa26034836113a2565b9150610fad8261164e565b604082019050919050565b6000610fc56027836113a2565b9150610fd08261169d565b604082019050919050565b6000610fe86008836113a2565b9150610ff3826116ec565b602082019050919050565b600061100b600a836113a2565b915061101682611715565b602082019050919050565b600061102e600083611386565b91506110398261173e565b600082019050919050565b600060c08301600083015161105c6000860182610e72565b50602083015161106f60208601826110d4565b50604083015184820360408601526110878282610f23565b915050606083015184820360608601526110a18282610f23565b91505060808301516110b660808601826110d4565b5060a08301516110c960a0860182610f05565b508091505092915050565b6110dd816114a1565b82525050565b6110ec816114a1565b82525050565b60006110fd82611021565b9150819050919050565b600060208201905081810360008301526111218184610e90565b905092915050565b600060208201905081810360008301526111438184610f5c565b905092915050565b600060408201905081810360008301526111658185610f5c565b90506111746020830184610e81565b9392505050565b600060608201905081810360008301526111958186610f5c565b90506111a46020830185610e81565b81810360408301526111b68184610f5c565b9050949350505050565b600060408201905081810360008301526111da8185610f5c565b90506111e960208301846110e3565b9392505050565b6000602082019050818103600083015261120981610f95565b9050919050565b6000602082019050818103600083015261122981610fb8565b9050919050565b6000602082019050818103600083015261124981610fdb565b9050919050565b6000602082019050818103600083015261126981610ffe565b9050919050565b600060208201905061128560008301846110e3565b92915050565b600060a0820190506112a060008301886110e3565b81810360208301526112b28187610f5c565b905081810360408301526112c68186610f5c565b90506112d560608301856110e3565b6112e26080830184610f14565b9695505050505050565b60006112f6611307565b9050611302828261151f565b919050565b6000604051905090565b600067ffffffffffffffff82111561132c5761132b61160e565b5b6113358261163d565b9050602081019050919050565b6000819050602082019050919050565b600081519050919050565b600081519050919050565b6000602082019050919050565b600082825260208201905092915050565b600081905092915050565b600082825260208201905092915050565b600082825260208201905092915050565b60006113be826114a1565b91506113c9836114a1565b9250827fffffffffffffffffffffffffffffffffffffffffffffffffffffffffffffffff038211156113fe576113fd611581565b5b828201905092915050565b6000611414826114a1565b915061141f836114a1565b9250817fffffffffffffffffffffffffffffffffffffffffffffffffffffffffffffffff048311821515161561145857611457611581565b5b828202905092915050565b600061146e82611481565b9050919050565b60008115159050919050565b600073ffffffffffffffffffffffffffffffffffffffff82169050919050565b6000819050919050565b82818337600083830152505050565b60005b838110156114d85780820151818401526020810190506114bd565b838111156114e7576000848401525b50505050565b6000600282049050600182168061150557607f821691505b60208210811415611519576115186115df565b5b50919050565b6115288261163d565b810181811067ffffffffffffffff821117156115475761154661160e565b5b80604052505050565b600061155b826114a1565b9150611566836114a1565b925082611576576115756115b0565b5b828206905092915050565b7f4e487b7100000000000000000000000000000000000000000000000000000000600052601160045260246000fd5b7f4e487b7100000000000000000000000000000000000000000000000000000000600052601260045260246000fd5b7f4e487b7100000000000000000000000000000000000000000000000000000000600052602260045260246000fd5b7f4e487b7100000000000000000000000000000000000000000000000000000000600052604160045260246000fd5b6000601f19601f8301169050919050565b7f547279696e6720746f207769746864726177206d6f7265206d6f6e657920746860008201527f616e2074686520636f6e7472616374206861732e000000000000000000000000602082015250565b7f4661696c656420746f207769746864726177206d6f6e65792066726f6d20636f60008201527f6e74726163742e00000000000000000000000000000000000000000000000000602082015250565b7f5761697420333073000000000000000000000000000000000000000000000000600082015250565b7f4e6f7420656e6f75676800000000000000000000000000000000000000000000600082015250565b50565b61174a81611463565b811461175557600080fd5b50565b611761816114a1565b811461176c57600080fd5b5056fea2646970667358221220c29b1e2f1a37ce791724c118e58b396a204a39c8b07a86a4627254fb8e81d78564736f6c63430008040033",
  "linkReferences": {},
  "deployedLinkReferences": {}
}